:100000002EC03DC03CC03BC03AC039C038C037C02C
:1000100036C035C034C033C032C031C030C02FC04C
:100020002EC02DC02CC00000000000000000000009
:1000300000000000000000000000000000000000C0
:1000400000000000000004B6E704B6D304B6C704FD
:10005000B6C302900703AC8103AC80029000112468
:100060001FBECFE5D4E0DEBFCDBF10E0A0E6B0E01C
:1000700001C01D92A636B107E1F702D02FC4C0CF50
:100080002F923F924F925F926F927F928F929F92A8
:10009000AF92BF92CF92DF92EF92FF920F931F9396
:1000A000DF93CF93CDB7DEB76C970FB6F894DEBF72
:1000B0000FBECDBF87E053D286E290E051D328EE49
:1000C00037E040E050E029833A834B835C838D81A5
:1000D0008C7F8D8398E09E832F87388B498B5A8B3A
:1000E0008B898C7F8B8B9C8B85E0682EAA24A394B4
:1000F0000FE0C02ED12CCC0EDD1E14E0912EB7E007
:10010000BB2EA2E6EA2EF3EE4F2EE2E37E2E78E33C
:10011000872E65E3262E57E3552E42EE342E75D2F8
:100120008823E9F3CE0101967DD28823C1F389812A
:100130009A81AB81BC81805E9740A040B04079F746
:100140008885823209F0C4C19985923049F483E0F0
:100150008D8BEE8A9F8B8A85888F198E1A8E1AC096
:10016000993CD1F48A858E3261F4BD8AEE8A9F8BE8
:10017000888F83E5898F89E48A8F8DE48B8F8DE268
:1001800035C08F3209F0BEC06D8AEE8A9F8B888F92
:10019000798E8A8E1B8E38C0923E09F070C08A8597
:1001A000882359F486E08D8BEE8A9F8B188E89E325
:1001B000898F8BE18A8F8AE626C08A3151F4BD8A05
:1001C000EE8A9F8B888F598E2DE42A8F2B8E81E3A8
:1001D0000DC0873169F4BD8AEE8A3F8A888F82E13B
:1001E000898F8AE08A8F86E08B8F80E58C8F88C02C
:1001F0008D3161F4BD8AEE8A3F8A888F81E4898FD0
:1002000086E48A8F82E48B8F1C8E7AC0813209F05B
:1002100079C0BD8AEE8A3F8A888F798E5A8E20E314
:100220002B8F84E38C8FC60152D200E21EE4C801FA
:100230000197F1F7BD8A8885805C8E8B89858F8BCD
:100240008A85888F898E5A8E36E3F32EFB8E7C8EBC
:10025000C6013DD2C8010197F1F7BD8A8885805C4F
:100260008E8B89858F8B8A85888FF98E1A8E1B8E4F
:100270001C8EC6012CD2C8010197F1F743C0933EF2
:1002800009F040C08A85882351F4BD8AEE8A9F8B8D
:10029000188E198E1A8E1B8E27E52C8F31C0813057
:1002A00059F4BD8AEE8A4F8AA88E86E4898F20E3AE
:1002B0002A8F2B8E88E59ACF823061F4BD8AEE8A30
:1002C0004F8A888F28E5298F87E48A8F23E42B8F34
:1002D00084E48CCF833051F4BD8AEE8A4F8A888FB4
:1002E000298E5A8E2DE42B8F7C8E0AC0843051F4D7
:1002F000BD8AEE8A4F8A888F798E8A8E8B8E8C8EFD
:10030000C601E5D19985983181F48A85882369F4FD
:10031000BD8A8885805C8E8B9F8B188E8FEF898F2E
:10032000AA8E1B8E1C8EC601D2D12985213179F46B
:100330009A85923061F49D8A8885805C8E8B2F8BA4
:10034000988FA98E1A8E1B8E1C8EC601C0D129854E
:10035000263179F49A85983361F46D8A8885805CBA
:100360008E8B2F8B988FA98E1A8E1B8E1C8EC6019A
:10037000AED12985213179F49A85913061F49D8A35
:100380008885805C8E8B2F8B988F998F1A8E1B8E11
:100390001C8EC6019CD12985293C79F49A8590311F
:1003A00061F46D8A8885805C8E8B2F8B988F198E77
:1003B000AA8E1B8E1C8EC6018AD12985243A79F417
:1003C0009A85903361F49D8A8885805C8E8B2F8B13
:1003D000988FA98E1A8E1B8E1C8EC60178D1298506
:1003E000233181F49A85903469F49D8A8885805CF4
:1003F0008E8B2F8B988F2FE1298F1A8E1B8E1C8E40
:10040000C60165D12985213179F49A85953261F447
:100410009D8A8885805C8E8B2F8B988FA98E1A8EF3
:100420001B8E1C8EC60153D12985213179F49A8502
:10043000943061F49D8B8885805C8E8B2F8B988F98
:10044000A98E1A8E1B8E1C8EC60141D129852131A1
:10045000B1F49A859D3499F46D8A8885805C8E8B81
:100460002F8B988F8091600090916100898F892FE8
:10047000990F990B8A8F1B8E1C8EC60128D18985F6
:10048000882391F49A85953079F49D8A8885805CDB
:100490008E8B1F8A988F80916200885D898F1A8E5B
:1004A0001B8E1C8EC60113D12985263189F49A85AD
:1004B0009A3A71F49D8A8885805C8E8B2F8B988FF9
:1004C00080916400898F1A8E1B8E1C8EC601FFD00E
:1004D0008885883109F023CE6D8A88E58E8BAF8AB6
:1004E000188E20E1298F8FEF8A8F1B8E1C8EC601FC
:1004F000EED015CEC298EDD18FEFEBD1C29A089510
:10050000FF920F931F93182F062FF42EC29885E0A9
:10051000E0D1812FDED1802FDCD18F2DDAD1C29AAC
:100520001F910F91FF9008951F93182FC29883E099
:10053000D0D1812FCED18FEFCCD1C29A1F91089507
:100540000F931F93182F062FC29882E0C2D1812FDC
:10055000C0D1802FBED1C29A1F910F9108950F93E1
:100560001F93CF93DF93182F883008F048C0C29AAA
:10057000BA9AC598C398C498BD9ABB9ABC98A4D19E
:10058000C29880ECA6D180EA9FE00197F1F7C29A69
:1005900080E49CE90197F1F7C29882E09AD188E261
:1005A00098D1E3E01E9FE0011124FE01EA5BFF4FBA
:1005B000E4918E2F8ED1FE01E95BFF4F0491802FD5
:1005C00088D1C85BDF4FFE01849183D183E081D164
:1005D000C29A8DE060E0B4DFB898C09A8CE060E029
:1005E000AFDF89E2A1DF182F8FE060E0A9DF1017ED
:1005F00031F48EE099DF807EE1F781E001C080E098
:10060000DF91CF911F910F91089586B380958170EE
:10061000089580EA6FDF90E08475843509F091E0F9
:10062000892F0895CF92DF92FF920F931F93CF935C
:10063000DF93EC0180EB5EDFF82E082F10E020E462
:10064000C22ED12CC022D12286FF02C080E905C073
:1006500087FD02C080E033C084E9C2983AD1CE0160
:10066000E8D08170880F9C819D7F982B9C838FEFB1
:1006700030D193E0169507959A95E1F7202F2170D8
:100680009C819E7F922B9C83082F0F700D8310E01E
:1006900007C08FEF1ED1FE01E10FF11D86831F5FA2
:1006A0001017B8F3C29ACD2819F08CE261E002C0AD
:1006B0008CE262E040E024DF8F2D87708F5FDF9156
:1006C000CF911F910F91FF90DF90CF900895FF92EF
:1006D0000F931F93CF93DF93EC0180EA0BDF82FD32
:1006E00002C0FF240BC084FD03C092E0F92E06C0B7
:1006F00086FF02C0FF242DC084E0F82EC2988F2D03
:100700008064E7D06C8166956170CE015DD00D810B
:100710000F708C8180FF04C0802F8064DAD00CC001
:10072000802FD7D010E006C0FE01E10FF11D8681B9
:10073000D0D01F5F1017C0F3C29A85E08A95F1F7F9
:10074000C298FF2011F4FF24F3948F2D8068C1D04C
:10075000C29A8F2DDF91CF911F910F91FF90089535
:100760000F931F93CF93DF93EC018FE060EE40E88F
:10077000C7DE8EE0D9DE807E8038D9F780E664E07F
:10078000DFDE80E760E0DCDE00E0C29882E0A1D03E
:10079000802F9FD010E0003211F4183040F4FE0199
:1007A0002196E4918E2F95D01F5F1C30A1F7C29A3D
:1007B000005F003351F78FE060EE40E0A1DEDF9193
:1007C000CF911F910F910895CF93DF93EC01662392
:1007D000C9F08A819B8135E0969587953A95E1F736
:1007E0008FB99A81779BFECF8FB1892F880F880FA1
:1007F000880F807E88609370892B6BD0898169D047
:10080000888113C08881998123E0969587952A95E0
:10081000E1F78FB98881779BFECF9FB18295880FD2
:10082000807E57D080E055D080E053D0DF91CF91CB
:1008300008951F93CF93DF93EC018FEF4AD0182FC9
:100840008FEF47D0482F212F30E083FF1FC08FEF5D
:100850008FB995E0220F331F9A95E1F73B832A83E6
:10086000779BFECF8FB189838FEF8FB9842F8370F1
:100870009A81892B4695469546954C71842B8A839F
:10088000779BFECF8FB1888381E01AC08FEF8FB93D
:100890001B821A8283E0220F331F8A95E1F7398386
:1008A0002883779BFECF8FB18FEF8FB94295469506
:1008B00047708881842B8883779BFECF8FB180E03F
:1008C000DF91CF911F91089581E58DB981E08EB9B7
:1008D00008958FB9779BFECF8FB10895F894FFCF1D
:00000001FF
