:100000002EC035C034C033C032C031C030C02FC064
:100010002EC02DC02CC02BC02AC029C028C027C08C
:1000200026C025C024C00000000000000000000021
:1000300000000000000000000000000000000000C0
:1000400000000000000004B6E704B6D304B6C704FD
:10005000B6C302900703AC8103AC80029000112468
:100060001FBECFE5D4E0DEBFCDBF02D036C2C8CFC1
:100070000F931F93DF93CF93CDB7DEB76C970FB677
:10008000F894DEBF0FBECDBF87E068D086E290E077
:1000900066D183E291E0A0E0B0E089839A83AB83EC
:1000A000BC838D818C7F8D8384E08E838EED8F83E6
:1000B0008DEA88878EEB89878FEE8A87CE0101963D
:1000C00005D18E01015F1F4F9FD08823E9F3C8013E
:1000D000A8D08823C9F38F859889A989BA890A96F7
:1000E000A11DB11D8F87988BA98BBA8BC801EED04B
:1000F000EBCFC298EDD18FEFEBD1C29A0895FF926A
:100100000F931F93182F062FF42EC29885E0E0D18D
:10011000812FDED1802FDCD18F2DDAD1C29A1F91B1
:100120000F91FF9008951F93182FC29883E0D0D1AC
:10013000812FCED18FEFCCD1C29A1F9108950F930A
:100140001F93182F062FC29882E0C2D1812FC0D1F1
:10015000802FBED1C29A1F910F9108950F931F93C4
:10016000CF93DF93182F883008F048C0C29ABA9A0C
:10017000C598C398C498BD9ABB9ABC98A4D1C2989C
:1001800080ECA6D180EA9FE00197F1F7C29A80E463
:100190009CE90197F1F7C29882E09AD188E298D160
:1001A000E3E01E9FE0011124FE01EA5BFF4FE491B2
:1001B0008E2F8ED1FE01E95BFF4F0491802F88D1F5
:1001C000C85BDF4FFE01849183D183E081D1C29A65
:1001D0008DE060E0B4DFB898C09A8CE060E0AFDFFB
:1001E00089E2A1DF182F8FE060E0A9DF101731F45A
:1001F0008EE099DF807EE1F781E001C080E0DF9151
:10020000CF911F910F91089586B3809581700895C5
:1002100080EA6FDF90E08475843509F091E0892FE2
:100220000895CF92DF92FF920F931F93CF93DF93A6
:10023000EC0180EB5EDFF82E082F10E020E4C22EE8
:10024000D12CC022D12286FF02C080E905C087FDE3
:1002500002C080E033C084E9C2983AD1CE01E8D030
:100260008170880F9C819D7F982B9C838FEF30D16C
:1002700093E0169507959A95E1F7202F21709C81C0
:100280009E7F922B9C83082F0F700D8310E007C078
:100290008FEF1ED1FE01E10FF11D86831F5F101746
:1002A000B8F3C29ACD2819F08CE261E002C08CE26A
:1002B00062E040E024DF8F2D87708F5FDF91CF9168
:1002C0001F910F91FF90DF90CF900895FF920F93B1
:1002D0001F93CF93DF93EC0180EA0BDF82FD02C016
:1002E000FF240BC084FD03C092E0F92E06C086FFF8
:1002F00002C0FF242DC084E0F82EC2988F2D8064A8
:10030000E7D06C8166956170CE015DD00D810F7074
:100310008C8180FF04C0802F8064DAD00CC0802FD5
:10032000D7D010E006C0FE01E10FF11D8681D0D0CC
:100330001F5F1017C0F3C29A85E08A95F1F7C29843
:10034000FF2011F4FF24F3948F2D8068C1D0C29A4E
:100350008F2DDF91CF911F910F91FF9008950F93F3
:100360001F93CF93DF93EC018FE060EE40E8C7DE90
:100370008EE0D9DE807E8038D9F780E664E0DFDE6B
:1003800080E760E0DCDE00E0C29882E0A1D0802F50
:100390009FD010E0003211F4183040F4FE01219695
:1003A000E4918E2F95D01F5F1C30A1F7C29A005F99
:1003B000003351F78FE060EE40E0A1DEDF91CF9196
:1003C0001F910F910895CF93DF93EC016623C9F03D
:1003D0008A819B8135E0969587953A95E1F78FB9AB
:1003E0009A81779BFECF8FB1892F880F880F880F56
:1003F000807E88609370892B6BD0898169D08881D9
:1004000013C08881998123E0969587952A95E1F715
:100410008FB98881779BFECF9FB18295880F807EB0
:1004200057D080E055D080E053D0DF91CF91089530
:100430001F93CF93DF93EC018FEF4AD0182F8FEFEC
:1004400047D0482F212F30E083FF1FC08FEF8FB997
:1004500095E0220F331F9A95E1F73B832A83779B20
:10046000FECF8FB189838FEF8FB9842F83709A81EC
:10047000892B4695469546954C71842B8A83779BAC
:10048000FECF8FB1888381E01AC08FEF8FB91B82B6
:100490001A8283E0220F331F8A95E1F7398328837C
:1004A000779BFECF8FB18FEF8FB9429546954770FE
:1004B0008881842B8883779BFECF8FB180E0DF918A
:1004C000CF911F91089581E58DB981E08EB908958E
:0E04D0008FB9779BFECF8FB10895F894FFCFC0
:00000001FF
